{
  "contractName": "Paster",
  "abi": [
    {
      "anonymous": false,
      "inputs": [
        {
          "indexed": false,
          "internalType": "address",
          "name": "_address",
          "type": "address"
        }
      ],
      "name": "LogSender",
      "type": "event"
    },
    {
      "anonymous": false,
      "inputs": [
        {
          "indexed": true,
          "internalType": "address",
          "name": "previousOwner",
          "type": "address"
        },
        {
          "indexed": true,
          "internalType": "address",
          "name": "newOwner",
          "type": "address"
        }
      ],
      "name": "OwnershipTransferred",
      "type": "event"
    },
    {
      "inputs": [],
      "name": "owner",
      "outputs": [
        {
          "internalType": "address",
          "name": "",
          "type": "address"
        }
      ],
      "stateMutability": "view",
      "type": "function",
      "constant": true
    },
    {
      "inputs": [
        {
          "internalType": "address",
          "name": "",
          "type": "address"
        }
      ],
      "name": "paste_snippets",
      "outputs": [
        {
          "internalType": "string",
          "name": "name",
          "type": "string"
        },
        {
          "internalType": "string",
          "name": "content",
          "type": "string"
        },
        {
          "internalType": "string",
          "name": "lang",
          "type": "string"
        },
        {
          "internalType": "address",
          "name": "address_snippet",
          "type": "address"
        },
        {
          "internalType": "bool",
          "name": "public_edit",
          "type": "bool"
        }
      ],
      "stateMutability": "view",
      "type": "function",
      "constant": true
    },
    {
      "inputs": [],
      "name": "renounceOwnership",
      "outputs": [],
      "stateMutability": "nonpayable",
      "type": "function"
    },
    {
      "inputs": [
        {
          "internalType": "address",
          "name": "newOwner",
          "type": "address"
        }
      ],
      "name": "transferOwnership",
      "outputs": [],
      "stateMutability": "nonpayable",
      "type": "function"
    },
    {
      "inputs": [],
      "name": "initialize",
      "outputs": [],
      "stateMutability": "nonpayable",
      "type": "function"
    },
    {
      "inputs": [
        {
          "internalType": "uint256",
          "name": "_length",
          "type": "uint256"
        }
      ],
      "name": "changeMaxSnippetLength",
      "outputs": [],
      "stateMutability": "payable",
      "type": "function",
      "payable": true
    },
    {
      "inputs": [
        {
          "internalType": "string",
          "name": "_name",
          "type": "string"
        },
        {
          "internalType": "string",
          "name": "_content",
          "type": "string"
        },
        {
          "internalType": "string",
          "name": "_lang",
          "type": "string"
        }
      ],
      "name": "addPasteSnippet",
      "outputs": [
        {
          "internalType": "bool",
          "name": "",
          "type": "bool"
        }
      ],
      "stateMutability": "payable",
      "type": "function",
      "payable": true
    },
    {
      "inputs": [
        {
          "internalType": "address",
          "name": "_address",
          "type": "address"
        }
      ],
      "name": "getPasteSnippet",
      "outputs": [
        {
          "internalType": "string",
          "name": "name",
          "type": "string"
        },
        {
          "internalType": "string",
          "name": "content",
          "type": "string"
        },
        {
          "internalType": "string",
          "name": "lang",
          "type": "string"
        },
        {
          "internalType": "address",
          "name": "address_snippet",
          "type": "address"
        },
        {
          "internalType": "bool",
          "name": "public_edit",
          "type": "bool"
        }
      ],
      "stateMutability": "payable",
      "type": "function",
      "payable": true
    },
    {
      "inputs": [
        {
          "internalType": "address",
          "name": "_address",
          "type": "address"
        },
        {
          "internalType": "string",
          "name": "_content",
          "type": "string"
        },
        {
          "internalType": "string",
          "name": "_lang",
          "type": "string"
        }
      ],
      "name": "changePasteSnippetContent",
      "outputs": [
        {
          "internalType": "bool",
          "name": "",
          "type": "bool"
        }
      ],
      "stateMutability": "payable",
      "type": "function",
      "payable": true
    },
    {
      "inputs": [
        {
          "internalType": "address",
          "name": "_address",
          "type": "address"
        },
        {
          "internalType": "bool",
          "name": "_status",
          "type": "bool"
        }
      ],
      "name": "changePasteSnippetPublicEdit",
      "outputs": [
        {
          "internalType": "bool",
          "name": "",
          "type": "bool"
        }
      ],
      "stateMutability": "payable",
      "type": "function",
      "payable": true
    }
  ],
  "bytecode": "0x608060405234801561001057600080fd5b5061191b806100206000396000f3fe6080604052600436106100915760003560e01c80638129fc1c116100595780638129fc1c146101825780638170d5bf146101995780638da5cb5b146101b5578063a46e8922146101e0578063f2fde38b1461021057610091565b806314235b0c14610096578063571928c3146100c65780635b0c194f146100fa578063626e9c851461013b578063715018a61461016b575b600080fd5b6100b060048036038101906100ab91906112a5565b610239565b6040516100bd91906115d5565b60405180910390f35b6100e060048036038101906100db91906111c1565b610403565b6040516100f19594939291906115f0565b60405180910390f35b34801561010657600080fd5b50610121600480360381019061011c91906111c1565b610769565b6040516101329594939291906115f0565b60405180910390f35b61015560048036038101906101509190611226565b610964565b60405161016291906115d5565b60405180910390f35b34801561017757600080fd5b50610180610b95565b005b34801561018e57600080fd5b50610197610c1d565b005b6101b360048036038101906101ae919061133c565b610cff565b005b3480156101c157600080fd5b506101ca610d85565b6040516101d791906115ba565b60405180910390f35b6101fa60048036038101906101f591906111ea565b610daf565b60405161020791906115d5565b60405180910390f35b34801561021c57600080fd5b50610237600480360381019061023291906111c1565b610eb1565b005b600060665483511115610281576040517f08c379a0000000000000000000000000000000000000000000000000000000008152600401610278906116d8565b60405180910390fd5b6040518060a001604052808581526020018481526020018381526020013373ffffffffffffffffffffffffffffffffffffffff16815260200160001515815250606560003373ffffffffffffffffffffffffffffffffffffffff1673ffffffffffffffffffffffffffffffffffffffff168152602001908152602001600020600082015181600001908051906020019061031c929190611077565b506020820151816001019080519060200190610339929190611077565b506040820151816002019080519060200190610356929190611077565b5060608201518160030160006101000a81548173ffffffffffffffffffffffffffffffffffffffff021916908373ffffffffffffffffffffffffffffffffffffffff16021790555060808201518160030160146101000a81548160ff0219169083151502179055509050507f7bbdc4cdaf68dae8f82950cdddba2d429ba45cdc33e01ddbf48570514540858c336040516103f091906115ba565b60405180910390a1600190509392505050565b6060806060600080606560008773ffffffffffffffffffffffffffffffffffffffff1673ffffffffffffffffffffffffffffffffffffffff1681526020019081526020016000206000018054610458906117ff565b80601f0160208091040260200160405190810160405280929190818152602001828054610484906117ff565b80156104d15780601f106104a6576101008083540402835291602001916104d1565b820191906000526020600020905b8154815290600101906020018083116104b457829003601f168201915b50505050509450606560008773ffffffffffffffffffffffffffffffffffffffff1673ffffffffffffffffffffffffffffffffffffffff1681526020019081526020016000206001018054610525906117ff565b80601f0160208091040260200160405190810160405280929190818152602001828054610551906117ff565b801561059e5780601f106105735761010080835404028352916020019161059e565b820191906000526020600020905b81548152906001019060200180831161058157829003601f168201915b50505050509350606560008773ffffffffffffffffffffffffffffffffffffffff1673ffffffffffffffffffffffffffffffffffffffff16815260200190815260200160002060020180546105f2906117ff565b80601f016020809104026020016040519081016040528092919081815260200182805461061e906117ff565b801561066b5780601f106106405761010080835404028352916020019161066b565b820191906000526020600020905b81548152906001019060200180831161064e57829003601f168201915b50505050509250606560008773ffffffffffffffffffffffffffffffffffffffff1673ffffffffffffffffffffffffffffffffffffffff16815260200190815260200160002060030160009054906101000a900473ffffffffffffffffffffffffffffffffffffffff169150606560008773ffffffffffffffffffffffffffffffffffffffff1673ffffffffffffffffffffffffffffffffffffffff16815260200190815260200160002060030160149054906101000a900460ff1690507f7bbdc4cdaf68dae8f82950cdddba2d429ba45cdc33e01ddbf48570514540858c3360405161075891906115ba565b60405180910390a191939590929450565b606560205280600052604060002060009150905080600001805461078c906117ff565b80601f01602080910402602001604051908101604052809291908181526020018280546107b8906117ff565b80156108055780601f106107da57610100808354040283529160200191610805565b820191906000526020600020905b8154815290600101906020018083116107e857829003601f168201915b50505050509080600101805461081a906117ff565b80601f0160208091040260200160405190810160405280929190818152602001828054610846906117ff565b80156108935780601f1061086857610100808354040283529160200191610893565b820191906000526020600020905b81548152906001019060200180831161087657829003601f168201915b5050505050908060020180546108a8906117ff565b80601f01602080910402602001604051908101604052809291908181526020018280546108d4906117ff565b80156109215780601f106108f657610100808354040283529160200191610921565b820191906000526020600020905b81548152906001019060200180831161090457829003601f168201915b5050505050908060030160009054906101000a900473ffffffffffffffffffffffffffffffffffffffff16908060030160149054906101000a900460ff16905085565b6000833373ffffffffffffffffffffffffffffffffffffffff16606560008373ffffffffffffffffffffffffffffffffffffffff1673ffffffffffffffffffffffffffffffffffffffff16815260200190815260200160002060030160009054906101000a900473ffffffffffffffffffffffffffffffffffffffff1673ffffffffffffffffffffffffffffffffffffffff161480610a56575060011515606560008373ffffffffffffffffffffffffffffffffffffffff1673ffffffffffffffffffffffffffffffffffffffff16815260200190815260200160002060030160149054906101000a900460ff161515145b610a95576040517f08c379a0000000000000000000000000000000000000000000000000000000008152600401610a8c90611678565b60405180910390fd5b60665484511115610adb576040517f08c379a0000000000000000000000000000000000000000000000000000000008152600401610ad2906116d8565b60405180910390fd5b83606560008773ffffffffffffffffffffffffffffffffffffffff1673ffffffffffffffffffffffffffffffffffffffff1681526020019081526020016000206001019080519060200190610b31929190611077565b5082606560008773ffffffffffffffffffffffffffffffffffffffff1673ffffffffffffffffffffffffffffffffffffffff1681526020019081526020016000206002019080519060200190610b88929190611077565b5060019150509392505050565b610b9d610fa9565b73ffffffffffffffffffffffffffffffffffffffff16610bbb610d85565b73ffffffffffffffffffffffffffffffffffffffff1614610c11576040517f08c379a0000000000000000000000000000000000000000000000000000000008152600401610c08906116b8565b60405180910390fd5b610c1b6000610fb1565b565b600060019054906101000a900460ff1680610c43575060008054906101000a900460ff16155b610c82576040517f08c379a0000000000000000000000000000000000000000000000000000000008152600401610c7990611698565b60405180910390fd5b60008060019054906101000a900460ff161590508015610cd2576001600060016101000a81548160ff02191690831515021790555060016000806101000a81548160ff0219169083151502179055505b6104006066819055508015610cfc5760008060016101000a81548160ff0219169083151502179055505b50565b610d07610fa9565b73ffffffffffffffffffffffffffffffffffffffff16610d25610d85565b73ffffffffffffffffffffffffffffffffffffffff1614610d7b576040517f08c379a0000000000000000000000000000000000000000000000000000000008152600401610d72906116b8565b60405180910390fd5b8060668190555050565b6000603360009054906101000a900473ffffffffffffffffffffffffffffffffffffffff16905090565b6000333373ffffffffffffffffffffffffffffffffffffffff16606560008373ffffffffffffffffffffffffffffffffffffffff1673ffffffffffffffffffffffffffffffffffffffff16815260200190815260200160002060030160009054906101000a900473ffffffffffffffffffffffffffffffffffffffff1673ffffffffffffffffffffffffffffffffffffffff1614610e4c57600080fd5b82606560008673ffffffffffffffffffffffffffffffffffffffff1673ffffffffffffffffffffffffffffffffffffffff16815260200190815260200160002060030160146101000a81548160ff021916908315150217905550600191505092915050565b610eb9610fa9565b73ffffffffffffffffffffffffffffffffffffffff16610ed7610d85565b73ffffffffffffffffffffffffffffffffffffffff1614610f2d576040517f08c379a0000000000000000000000000000000000000000000000000000000008152600401610f24906116b8565b60405180910390fd5b600073ffffffffffffffffffffffffffffffffffffffff168173ffffffffffffffffffffffffffffffffffffffff161415610f9d576040517f08c379a0000000000000000000000000000000000000000000000000000000008152600401610f9490611658565b60405180910390fd5b610fa681610fb1565b50565b600033905090565b6000603360009054906101000a900473ffffffffffffffffffffffffffffffffffffffff16905081603360006101000a81548173ffffffffffffffffffffffffffffffffffffffff021916908373ffffffffffffffffffffffffffffffffffffffff1602179055508173ffffffffffffffffffffffffffffffffffffffff168173ffffffffffffffffffffffffffffffffffffffff167f8be0079c531659141344cd1fd0a4f28419497f9722a3daafe3b4186f6b6457e060405160405180910390a35050565b828054611083906117ff565b90600052602060002090601f0160209004810192826110a557600085556110ec565b82601f106110be57805160ff19168380011785556110ec565b828001600101855582156110ec579182015b828111156110eb5782518255916020019190600101906110d0565b5b5090506110f991906110fd565b5090565b5b808211156111165760008160009055506001016110fe565b5090565b600061112d61112884611729565b6116f8565b90508281526020810184848401111561114557600080fd5b6111508482856117bd565b509392505050565b600081359050611167816118a0565b92915050565b60008135905061117c816118b7565b92915050565b600082601f83011261119357600080fd5b81356111a384826020860161111a565b91505092915050565b6000813590506111bb816118ce565b92915050565b6000602082840312156111d357600080fd5b60006111e184828501611158565b91505092915050565b600080604083850312156111fd57600080fd5b600061120b85828601611158565b925050602061121c8582860161116d565b9150509250929050565b60008060006060848603121561123b57600080fd5b600061124986828701611158565b935050602084013567ffffffffffffffff81111561126657600080fd5b61127286828701611182565b925050604084013567ffffffffffffffff81111561128f57600080fd5b61129b86828701611182565b9150509250925092565b6000806000606084860312156112ba57600080fd5b600084013567ffffffffffffffff8111156112d457600080fd5b6112e086828701611182565b935050602084013567ffffffffffffffff8111156112fd57600080fd5b61130986828701611182565b925050604084013567ffffffffffffffff81111561132657600080fd5b61133286828701611182565b9150509250925092565b60006020828403121561134e57600080fd5b600061135c848285016111ac565b91505092915050565b61136e81611775565b82525050565b61137d81611787565b82525050565b600061138e82611759565b6113988185611764565b93506113a88185602086016117cc565b6113b18161188f565b840191505092915050565b60006113c9602683611764565b91507f4f776e61626c653a206e6577206f776e657220697320746865207a65726f206160008301527f64647265737300000000000000000000000000000000000000000000000000006020830152604082019050919050565b600061142f606183611764565b91507f4e6f74207065726d6974746564202d207468697320616464726573732069732060008301527f6e6f742074686520616464726573735f736e697070657420616e64207468697360208301527f20736e6970706574206973206e6f74207075626c69636c79206564697461626c60408301527f65000000000000000000000000000000000000000000000000000000000000006060830152608082019050919050565b60006114e1602e83611764565b91507f496e697469616c697a61626c653a20636f6e747261637420697320616c72656160008301527f647920696e697469616c697a65640000000000000000000000000000000000006020830152604082019050919050565b6000611547602083611764565b91507f4f776e61626c653a2063616c6c6572206973206e6f7420746865206f776e65726000830152602082019050919050565b6000611587601e83611764565b91507f636f6e74656e7420737472696e67206f766572206d6178206c656e67746800006000830152602082019050919050565b60006020820190506115cf6000830184611365565b92915050565b60006020820190506115ea6000830184611374565b92915050565b600060a082019050818103600083015261160a8188611383565b9050818103602083015261161e8187611383565b905081810360408301526116328186611383565b90506116416060830185611365565b61164e6080830184611374565b9695505050505050565b60006020820190508181036000830152611671816113bc565b9050919050565b6000602082019050818103600083015261169181611422565b9050919050565b600060208201905081810360008301526116b1816114d4565b9050919050565b600060208201905081810360008301526116d18161153a565b9050919050565b600060208201905081810360008301526116f18161157a565b9050919050565b6000604051905081810181811067ffffffffffffffff8211171561171f5761171e611860565b5b8060405250919050565b600067ffffffffffffffff82111561174457611743611860565b5b601f19601f8301169050602081019050919050565b600081519050919050565b600082825260208201905092915050565b600061178082611793565b9050919050565b60008115159050919050565b600073ffffffffffffffffffffffffffffffffffffffff82169050919050565b6000819050919050565b82818337600083830152505050565b60005b838110156117ea5780820151818401526020810190506117cf565b838111156117f9576000848401525b50505050565b6000600282049050600182168061181757607f821691505b6020821081141561182b5761182a611831565b5b50919050565b7f4e487b7100000000000000000000000000000000000000000000000000000000600052602260045260246000fd5b7f4e487b7100000000000000000000000000000000000000000000000000000000600052604160045260246000fd5b6000601f19601f8301169050919050565b6118a981611775565b81146118b457600080fd5b50565b6118c081611787565b81146118cb57600080fd5b50565b6118d7816117b3565b81146118e257600080fd5b5056fea2646970667358221220407f49e4198201aa8652325ef95094d53f2cd04aa9c4d44abe4550d7dba31acb64736f6c63430008000033",
  "immutableReferences": {},
  "source": "pragma solidity 0.8.0;\n\nimport \"@openzeppelin/contracts-upgradeable/proxy/utils/Initializable.sol\";\nimport \"@openzeppelin/contracts-upgradeable/access/OwnableUpgradeable.sol\";\n\n/// @title A web 3.0 code snippet paster contract\n/// @author Olly W.\n/// @notice You can use this contract for only the most basic simulation\n/// @dev All function calls are currently implemented without side effects\ncontract Paster is Initializable, OwnableUpgradeable {\n    // Variables and Structs:\n\n    /// @notice Returns the PasteSnippet at a specific address in the mapping\n    /// @return a PasteSnippet instance\n    mapping(address => PasteSnippet) public paste_snippets;\n\n    /// @dev The maximum length of a code snippet\n    uint256 maxSnippetLength;\n\n    /// @notice contract initialization function, sets maxSnippetLength to 1024 bytes\n    function initialize() public initializer {\n        maxSnippetLength = 1024;\n    }\n\n    /// @notice A struct defining the PasteSnippet - a specific instance of a code snippet associated with an address\n    /// @param name The name of the snippet\n    /// @param content The content of the snippet - the code paste itself\n    /// @param lang The language (e.g., javascript, python etc) of the snippet\n    /// @param address_snippet The address associated with the snippet\n    /// @param public_edit A flag to define whether the snippet can be edited by anyone or not\n    struct PasteSnippet {\n        string name;\n        string content;\n        string lang;\n        address address_snippet;\n        bool public_edit;\n    }\n\n    // Events:\n\n    /// @notice An event to log the address sent in a call\n    /// @param _address the address to log in the event\n    event LogSender(address _address);\n\n    // Modifiers:\n\n    /// @notice A modifier to check whether a PasteSnippet is associated with an address\n    /// @param _address the address to check association with\n    modifier isAddressSnippet(address _address) {\n        require(paste_snippets[_address].address_snippet == msg.sender);\n        _;\n    }\n\n    /// @notice modifier to check whether a PasteSnippet is either publicly editable, or if the PasteSnippet is associated with an address\n    /// @param _address the address to check the edit status of\n    modifier verifyCaller(address _address) {\n        require(\n            paste_snippets[_address].address_snippet == msg.sender ||\n                paste_snippets[_address].public_edit == true,\n            \"Not permitted - this address is not the address_snippet and this snippet is not publicly editable\"\n        );\n        _;\n    }\n\n    // Functions:\n\n    /// @notice Function to change the maximum length (in bytes) of a code snippet, may only be called by the contract owner\n    /// @dev only callable by contract owner\n    /// @param _length new length in bytes for the maxSnippetLength\n    function changeMaxSnippetLength(uint256 _length) public payable onlyOwner {\n        maxSnippetLength = _length;\n    }\n\n    /// @notice A function to add a new PasteSnippet, or change the PasteSnippet at a specific address\n    /// @param _name the name of the code snippet\n    /// @param _content the actual content of the code snippet\n    /// @param _lang the language of the code snippet\n    /// @return boolean success of the function\n    function addPasteSnippet(\n        string memory _name,\n        string memory _content,\n        string memory _lang\n    ) public payable returns (bool) {\n        require(\n            bytes(_content).length <= maxSnippetLength,\n            \"content string over max length\"\n        );\n        paste_snippets[msg.sender] = PasteSnippet({\n            name: _name,\n            content: _content,\n            lang: _lang,\n            address_snippet: msg.sender,\n            public_edit: false\n        });\n        emit LogSender(msg.sender);\n\n        return true;\n    }\n\n    /// @notice A function to get the information of a specific snippet at a specific address\n    /// @param _address the address associated with the snippet to retrieve\n    /// @return name - the name of the relevant snippet\n    /// @return content - the actual content of the relevant snippet\n    /// @return lang - the lang (e.g., javascript) of the relevant snippet\n    /// @return address_snippet - the address associated with the snippet\n    /// @return public_edit - whether or not this snippet can be publicly edited\n    function getPasteSnippet(address _address)\n        public\n        payable\n        returns (\n            string memory name,\n            string memory content,\n            string memory lang,\n            address address_snippet,\n            bool public_edit\n        )\n    {\n        name = paste_snippets[_address].name;\n        content = paste_snippets[_address].content;\n        lang = paste_snippets[_address].lang;\n        address_snippet = paste_snippets[_address].address_snippet;\n        public_edit = paste_snippets[_address].public_edit;\n        emit LogSender(msg.sender);\n        return (name, content, lang, address_snippet, public_edit);\n    }\n\n    /// @notice A function to change only the content and lang of a PasteSnippet at a specific address\n    /// @param _address the address associated with the snippet to change\n    /// @param _content the new content for this snippet\n    /// @param _lang the new lang for this snippet\n    /// @return boolean success of the function\n    function changePasteSnippetContent(\n        address _address,\n        string memory _content,\n        string memory _lang\n    ) public payable verifyCaller(_address) returns (bool) {\n        require(\n            bytes(_content).length <= maxSnippetLength,\n            \"content string over max length\"\n        );\n        paste_snippets[_address].content = _content;\n        paste_snippets[_address].lang = _lang;\n        return true;\n    }\n\n    /// @notice A function to change only the publicly editable status of a PasteSnippet at a specific address\n    /// @param _address the address associated with the snippet to change\n    /// @param _status the new public_edit status for the snippet\n    /// @return boolean success of the function\n    function changePasteSnippetPublicEdit(address _address, bool _status)\n        public\n        payable\n        isAddressSnippet(msg.sender)\n        returns (bool)\n    {\n        paste_snippets[_address].public_edit = _status;\n        return true;\n    }\n}\n",
  "sourcePath": "/Users/ollywilson/blockchain-developer-bootcamp-final-project/contracts/Paster.sol",
  "compiler": {
    "name": "solc",
    "version": "0.8.0+commit.c7dfd78e.Emscripten.clang"
  },
  "schemaVersion": "3.4.3",
  "updatedAt": "2021-11-12T19:15:53.992Z",
  "networkType": "ethereum",
  "devdoc": {
    "author": "Olly W.",
    "details": "All function calls are currently implemented without side effects",
    "events": {
      "LogSender(address)": {
        "params": {
          "_address": "the address to log in the event"
        }
      }
    },
    "kind": "dev",
    "methods": {
      "addPasteSnippet(string,string,string)": {
        "params": {
          "_content": "the actual content of the code snippet",
          "_lang": "the language of the code snippet",
          "_name": "the name of the code snippet"
        },
        "returns": {
          "_0": "boolean success of the function"
        }
      },
      "changeMaxSnippetLength(uint256)": {
        "details": "only callable by contract owner",
        "params": {
          "_length": "new length in bytes for the maxSnippetLength"
        }
      },
      "changePasteSnippetContent(address,string,string)": {
        "params": {
          "_address": "the address associated with the snippet to change",
          "_content": "the new content for this snippet",
          "_lang": "the new lang for this snippet"
        },
        "returns": {
          "_0": "boolean success of the function"
        }
      },
      "changePasteSnippetPublicEdit(address,bool)": {
        "params": {
          "_address": "the address associated with the snippet to change",
          "_status": "the new public_edit status for the snippet"
        },
        "returns": {
          "_0": "boolean success of the function"
        }
      },
      "getPasteSnippet(address)": {
        "params": {
          "_address": "the address associated with the snippet to retrieve"
        },
        "returns": {
          "address_snippet": "- the address associated with the snippet",
          "content": "- the actual content of the relevant snippet",
          "lang": "- the lang (e.g., javascript) of the relevant snippet",
          "name": "- the name of the relevant snippet",
          "public_edit": "- whether or not this snippet can be publicly edited"
        }
      },
      "owner()": {
        "details": "Returns the address of the current owner."
      },
      "renounceOwnership()": {
        "details": "Leaves the contract without owner. It will not be possible to call `onlyOwner` functions anymore. Can only be called by the current owner. NOTE: Renouncing ownership will leave the contract without an owner, thereby removing any functionality that is only available to the owner."
      },
      "transferOwnership(address)": {
        "details": "Transfers ownership of the contract to a new account (`newOwner`). Can only be called by the current owner."
      }
    },
    "stateVariables": {
      "maxSnippetLength": {
        "details": "The maximum length of a code snippet"
      },
      "paste_snippets": {
        "return": "a PasteSnippet instance"
      }
    },
    "title": "A web 3.0 code snippet paster contract",
    "version": 1
  },
  "userdoc": {
    "events": {
      "LogSender(address)": {
        "notice": "An event to log the address sent in a call"
      }
    },
    "kind": "user",
    "methods": {
      "addPasteSnippet(string,string,string)": {
        "notice": "A function to add a new PasteSnippet, or change the PasteSnippet at a specific address"
      },
      "changeMaxSnippetLength(uint256)": {
        "notice": "Function to change the maximum length (in bytes) of a code snippet, may only be called by the contract owner"
      },
      "changePasteSnippetContent(address,string,string)": {
        "notice": "A function to change only the content and lang of a PasteSnippet at a specific address"
      },
      "changePasteSnippetPublicEdit(address,bool)": {
        "notice": "A function to change only the publicly editable status of a PasteSnippet at a specific address"
      },
      "getPasteSnippet(address)": {
        "notice": "A function to get the information of a specific snippet at a specific address"
      },
      "initialize()": {
        "notice": "contract initialization function, sets maxSnippetLength to 1024 bytes"
      },
      "paste_snippets(address)": {
        "notice": "Returns the PasteSnippet at a specific address in the mapping"
      }
    },
    "notice": "You can use this contract for only the most basic simulation",
    "version": 1
  }
}